{
  "_format": "hh-sol-artifact-1",
  "contractName": "MicroloanSystem",
  "sourceName": "contracts/Microloan.sol",
  "abi": [
    {
      "anonymous": false,
      "inputs": [
        {
          "indexed": false,
          "internalType": "address",
          "name": "borrower",
          "type": "address"
        },
        {
          "indexed": false,
          "internalType": "uint256",
          "name": "newScore",
          "type": "uint256"
        }
      ],
      "name": "CreditScoreUpdated",
      "type": "event"
    },
    {
      "anonymous": false,
      "inputs": [
        {
          "indexed": false,
          "internalType": "uint256",
          "name": "id",
          "type": "uint256"
        },
        {
          "indexed": false,
          "internalType": "address",
          "name": "borrower",
          "type": "address"
        }
      ],
      "name": "LoanDefaulted",
      "type": "event"
    },
    {
      "anonymous": false,
      "inputs": [
        {
          "indexed": false,
          "internalType": "uint256",
          "name": "id",
          "type": "uint256"
        },
        {
          "indexed": false,
          "internalType": "address",
          "name": "lender",
          "type": "address"
        }
      ],
      "name": "LoanFunded",
      "type": "event"
    },
    {
      "anonymous": false,
      "inputs": [
        {
          "indexed": false,
          "internalType": "uint256",
          "name": "id",
          "type": "uint256"
        },
        {
          "indexed": false,
          "internalType": "address",
          "name": "borrower",
          "type": "address"
        },
        {
          "indexed": false,
          "internalType": "uint256",
          "name": "totalPaid",
          "type": "uint256"
        }
      ],
      "name": "LoanRepaid",
      "type": "event"
    },
    {
      "anonymous": false,
      "inputs": [
        {
          "indexed": false,
          "internalType": "uint256",
          "name": "id",
          "type": "uint256"
        },
        {
          "indexed": false,
          "internalType": "address",
          "name": "borrower",
          "type": "address"
        },
        {
          "indexed": false,
          "internalType": "uint256",
          "name": "amount",
          "type": "uint256"
        },
        {
          "indexed": false,
          "internalType": "uint256",
          "name": "interest",
          "type": "uint256"
        },
        {
          "indexed": false,
          "internalType": "uint256",
          "name": "dueDate",
          "type": "uint256"
        }
      ],
      "name": "LoanRequested",
      "type": "event"
    },
    {
      "inputs": [
        {
          "internalType": "address",
          "name": "",
          "type": "address"
        }
      ],
      "name": "borrowerCreditScore",
      "outputs": [
        {
          "internalType": "uint256",
          "name": "",
          "type": "uint256"
        }
      ],
      "stateMutability": "view",
      "type": "function"
    },
    {
      "inputs": [
        {
          "internalType": "uint256",
          "name": "_loanId",
          "type": "uint256"
        }
      ],
      "name": "fundLoan",
      "outputs": [],
      "stateMutability": "payable",
      "type": "function"
    },
    {
      "inputs": [
        {
          "internalType": "address",
          "name": "_borrower",
          "type": "address"
        }
      ],
      "name": "getCreditScore",
      "outputs": [
        {
          "internalType": "uint256",
          "name": "",
          "type": "uint256"
        }
      ],
      "stateMutability": "view",
      "type": "function"
    },
    {
      "inputs": [
        {
          "internalType": "uint256",
          "name": "_loanId",
          "type": "uint256"
        }
      ],
      "name": "getLoan",
      "outputs": [
        {
          "components": [
            {
              "internalType": "uint256",
              "name": "id",
              "type": "uint256"
            },
            {
              "internalType": "address",
              "name": "borrower",
              "type": "address"
            },
            {
              "internalType": "address",
              "name": "lender",
              "type": "address"
            },
            {
              "internalType": "uint256",
              "name": "amount",
              "type": "uint256"
            },
            {
              "internalType": "uint256",
              "name": "interest",
              "type": "uint256"
            },
            {
              "internalType": "uint256",
              "name": "dueDate",
              "type": "uint256"
            },
            {
              "internalType": "bool",
              "name": "isFunded",
              "type": "bool"
            },
            {
              "internalType": "bool",
              "name": "isRepaid",
              "type": "bool"
            },
            {
              "internalType": "bool",
              "name": "isDefaulted",
              "type": "bool"
            }
          ],
          "internalType": "struct MicroloanSystem.Loan",
          "name": "",
          "type": "tuple"
        }
      ],
      "stateMutability": "view",
      "type": "function"
    },
    {
      "inputs": [],
      "name": "loanCount",
      "outputs": [
        {
          "internalType": "uint256",
          "name": "",
          "type": "uint256"
        }
      ],
      "stateMutability": "view",
      "type": "function"
    },
    {
      "inputs": [
        {
          "internalType": "uint256",
          "name": "",
          "type": "uint256"
        }
      ],
      "name": "loans",
      "outputs": [
        {
          "internalType": "uint256",
          "name": "id",
          "type": "uint256"
        },
        {
          "internalType": "address",
          "name": "borrower",
          "type": "address"
        },
        {
          "internalType": "address",
          "name": "lender",
          "type": "address"
        },
        {
          "internalType": "uint256",
          "name": "amount",
          "type": "uint256"
        },
        {
          "internalType": "uint256",
          "name": "interest",
          "type": "uint256"
        },
        {
          "internalType": "uint256",
          "name": "dueDate",
          "type": "uint256"
        },
        {
          "internalType": "bool",
          "name": "isFunded",
          "type": "bool"
        },
        {
          "internalType": "bool",
          "name": "isRepaid",
          "type": "bool"
        },
        {
          "internalType": "bool",
          "name": "isDefaulted",
          "type": "bool"
        }
      ],
      "stateMutability": "view",
      "type": "function"
    },
    {
      "inputs": [
        {
          "internalType": "uint256",
          "name": "_loanId",
          "type": "uint256"
        }
      ],
      "name": "markAsDefault",
      "outputs": [],
      "stateMutability": "nonpayable",
      "type": "function"
    },
    {
      "inputs": [
        {
          "internalType": "uint256",
          "name": "_loanId",
          "type": "uint256"
        }
      ],
      "name": "repayLoan",
      "outputs": [],
      "stateMutability": "payable",
      "type": "function"
    },
    {
      "inputs": [
        {
          "internalType": "uint256",
          "name": "_amount",
          "type": "uint256"
        },
        {
          "internalType": "uint256",
          "name": "_interest",
          "type": "uint256"
        },
        {
          "internalType": "uint256",
          "name": "_dueDate",
          "type": "uint256"
        }
      ],
      "name": "requestLoan",
      "outputs": [],
      "stateMutability": "nonpayable",
      "type": "function"
    }
  ],
  "bytecode": "0x6080604052348015600f57600080fd5b50611e2c8061001f6000396000f3fe6080604052600436106100865760003560e01c8063b59d38d711610059578063b59d38d71461013d578063ce63094d14610166578063d3dd2bdf14610191578063e1ec3c68146101ce578063edadbbfe1461021357610086565b8063332906de1461008b578063504006ca146100c8578063846b909a14610105578063ab7b1c8914610121575b600080fd5b34801561009757600080fd5b506100b260048036038101906100ad9190611322565b61023c565b6040516100bf9190611368565b60405180910390f35b3480156100d457600080fd5b506100ef60048036038101906100ea91906113af565b610254565b6040516100fc91906114cc565b60405180910390f35b61011f600480360381019061011a91906113af565b6103a7565b005b61013b600480360381019061013691906113af565b610647565b005b34801561014957600080fd5b50610164600480360381019061015f91906113af565b610b21565b005b34801561017257600080fd5b5061017b610eb5565b6040516101889190611368565b60405180910390f35b34801561019d57600080fd5b506101b860048036038101906101b39190611322565b610ebb565b6040516101c59190611368565b60405180910390f35b3480156101da57600080fd5b506101f560048036038101906101f091906113af565b610f04565b60405161020a99989796959493929190611506565b60405180910390f35b34801561021f57600080fd5b5061023a60048036038101906102359190611593565b610fb9565b005b60026020528060005260406000206000915090505481565b61025c611241565b6001600083815260200190815260200160002060405180610120016040529081600082015481526020016001820160009054906101000a900473ffffffffffffffffffffffffffffffffffffffff1673ffffffffffffffffffffffffffffffffffffffff1673ffffffffffffffffffffffffffffffffffffffff1681526020016002820160009054906101000a900473ffffffffffffffffffffffffffffffffffffffff1673ffffffffffffffffffffffffffffffffffffffff1673ffffffffffffffffffffffffffffffffffffffff1681526020016003820154815260200160048201548152602001600582015481526020016006820160009054906101000a900460ff161515151581526020016006820160019054906101000a900460ff161515151581526020016006820160029054906101000a900460ff1615151515815250509050919050565b60006001600083815260200190815260200160002090508060060160009054906101000a900460ff1615610410576040517f08c379a000000000000000000000000000000000000000000000000000000000815260040161040790611643565b60405180910390fd5b8060060160029054906101000a900460ff1615610462576040517f08c379a0000000000000000000000000000000000000000000000000000000008152600401610459906116af565b60405180910390fd5b806003015434146104a8576040517f08c379a000000000000000000000000000000000000000000000000000000000815260040161049f9061171b565b60405180910390fd5b600073ffffffffffffffffffffffffffffffffffffffff168160010160009054906101000a900473ffffffffffffffffffffffffffffffffffffffff1673ffffffffffffffffffffffffffffffffffffffff160361053b576040517f08c379a000000000000000000000000000000000000000000000000000000000815260040161053290611787565b60405180910390fd5b338160020160006101000a81548173ffffffffffffffffffffffffffffffffffffffff021916908373ffffffffffffffffffffffffffffffffffffffff16021790555060018160060160006101000a81548160ff0219169083151502179055508060010160009054906101000a900473ffffffffffffffffffffffffffffffffffffffff1673ffffffffffffffffffffffffffffffffffffffff166108fc82600301549081150290604051600060405180830381858888f19350505050158015610609573d6000803e3d6000fd5b507f15feab5d3eb17171632762cf769709a315dd15f487a556c0dfb8a259c8f186cc823360405161063b9291906117a7565b60405180910390a15050565b60006001600083815260200190815260200160002090508060060160009054906101000a900460ff166106af576040517f08c379a00000000000000000000000000000000000000000000000000000000081526004016106a69061181c565b60405180910390fd5b8060060160019054906101000a900460ff1615610701576040517f08c379a00000000000000000000000000000000000000000000000000000000081526004016106f890611888565b60405180910390fd5b8060060160029054906101000a900460ff1615610753576040517f08c379a000000000000000000000000000000000000000000000000000000000815260040161074a906118f4565b60405180910390fd5b8060010160009054906101000a900473ffffffffffffffffffffffffffffffffffffffff1673ffffffffffffffffffffffffffffffffffffffff163373ffffffffffffffffffffffffffffffffffffffff16146107e5576040517f08c379a00000000000000000000000000000000000000000000000000000000081526004016107dc90611960565b60405180910390fd5b60006064826004015483600301546107fd91906119af565b6108079190611a20565b82600301546108169190611a51565b90508034101561085b576040517f08c379a000000000000000000000000000000000000000000000000000000000815260040161085290611ad1565b60405180910390fd5b60018260060160016101000a81548160ff0219169083151502179055508160020160009054906101000a900473ffffffffffffffffffffffffffffffffffffffff1673ffffffffffffffffffffffffffffffffffffffff166108fc829081150290604051600060405180830381858888f193505050501580156108e2573d6000803e3d6000fd5b507f512d3e65b3e58c2187bb1872aa435dba5bd09c1c03823ba56ab70aac411e4a2183338360405161091693929190611af1565b60405180910390a16000600260003373ffffffffffffffffffffffffffffffffffffffff1673ffffffffffffffffffffffffffffffffffffffff168152602001908152602001600020549050826005015442116109cd576103848110156109c8576014816109849190611a51565b600260003373ffffffffffffffffffffffffffffffffffffffff1673ffffffffffffffffffffffffffffffffffffffff168152602001908152602001600020819055505b610aa3565b6203f48083600501546109e09190611a51565b4211610a4657610384811015610a4157600a816109fd9190611a51565b600260003373ffffffffffffffffffffffffffffffffffffffff1673ffffffffffffffffffffffffffffffffffffffff168152602001908152602001600020819055505b610aa2565b610190811115610aa157601481610a5d9190611b28565b600260003373ffffffffffffffffffffffffffffffffffffffff1673ffffffffffffffffffffffffffffffffffffffff168152602001908152602001600020819055505b5b5b7f79c012a0cfae660e09134956bc432c8497ec80e86a3a108d130e8b3fca52b3ad33600260003373ffffffffffffffffffffffffffffffffffffffff1673ffffffffffffffffffffffffffffffffffffffff16815260200190815260200160002054604051610b13929190611b5c565b60405180910390a150505050565b60006001600083815260200190815260200160002090508060060160009054906101000a900460ff16610b89576040517f08c379a0000000000000000000000000000000000000000000000000000000008152600401610b809061181c565b60405180910390fd5b8060060160019054906101000a900460ff1615610bdb576040517f08c379a0000000000000000000000000000000000000000000000000000000008152600401610bd290611888565b60405180910390fd5b8060060160029054906101000a900460ff1615610c2d576040517f08c379a0000000000000000000000000000000000000000000000000000000008152600401610c2490611bd1565b60405180910390fd5b6203f4808160050154610c409190611a51565b4211610c81576040517f08c379a0000000000000000000000000000000000000000000000000000000008152600401610c7890611c3d565b60405180910390fd5b60018160060160026101000a81548160ff0219169083151502179055506000600260008360010160009054906101000a900473ffffffffffffffffffffffffffffffffffffffff1673ffffffffffffffffffffffffffffffffffffffff1673ffffffffffffffffffffffffffffffffffffffff16815260200190815260200160002054905060008103610d145761025890505b610190811115610d9357603281610d2b9190611b28565b600260008460010160009054906101000a900473ffffffffffffffffffffffffffffffffffffffff1673ffffffffffffffffffffffffffffffffffffffff1673ffffffffffffffffffffffffffffffffffffffff168152602001908152602001600020819055505b7f13b88e6866f0156d706fecfa22b678de5fc2b749c1d2307f6f47eb541385f1ec838360010160009054906101000a900473ffffffffffffffffffffffffffffffffffffffff16604051610de89291906117a7565b60405180910390a17f79c012a0cfae660e09134956bc432c8497ec80e86a3a108d130e8b3fca52b3ad8260010160009054906101000a900473ffffffffffffffffffffffffffffffffffffffff16600260008560010160009054906101000a900473ffffffffffffffffffffffffffffffffffffffff1673ffffffffffffffffffffffffffffffffffffffff1673ffffffffffffffffffffffffffffffffffffffff16815260200190815260200160002054604051610ea8929190611b5c565b60405180910390a1505050565b60005481565b6000600260008373ffffffffffffffffffffffffffffffffffffffff1673ffffffffffffffffffffffffffffffffffffffff168152602001908152602001600020549050919050565b60016020528060005260406000206000915090508060000154908060010160009054906101000a900473ffffffffffffffffffffffffffffffffffffffff16908060020160009054906101000a900473ffffffffffffffffffffffffffffffffffffffff16908060030154908060040154908060050154908060060160009054906101000a900460ff16908060060160019054906101000a900460ff16908060060160029054906101000a900460ff16905089565b60008311610ffc576040517f08c379a0000000000000000000000000000000000000000000000000000000008152600401610ff390611ccf565b60405180910390fd5b42811161103e576040517f08c379a000000000000000000000000000000000000000000000000000000000815260040161103590611d3b565b60405180910390fd5b60008081548092919061105090611d5b565b919050555060405180610120016040528060005481526020013373ffffffffffffffffffffffffffffffffffffffff168152602001600073ffffffffffffffffffffffffffffffffffffffff1681526020018481526020018381526020018281526020016000151581526020016000151581526020016000151581525060016000805481526020019081526020016000206000820151816000015560208201518160010160006101000a81548173ffffffffffffffffffffffffffffffffffffffff021916908373ffffffffffffffffffffffffffffffffffffffff16021790555060408201518160020160006101000a81548173ffffffffffffffffffffffffffffffffffffffff021916908373ffffffffffffffffffffffffffffffffffffffff160217905550606082015181600301556080820151816004015560a0820151816005015560c08201518160060160006101000a81548160ff02191690831515021790555060e08201518160060160016101000a81548160ff0219169083151502179055506101008201518160060160026101000a81548160ff0219169083151502179055509050507ff6cc19e46a340ab5888d736bfc79aef72ae92d12d7b76319d72b0abc170868e660005433858585604051611234959493929190611da3565b60405180910390a1505050565b60405180610120016040528060008152602001600073ffffffffffffffffffffffffffffffffffffffff168152602001600073ffffffffffffffffffffffffffffffffffffffff1681526020016000815260200160008152602001600081526020016000151581526020016000151581526020016000151581525090565b600080fd5b600073ffffffffffffffffffffffffffffffffffffffff82169050919050565b60006112ef826112c4565b9050919050565b6112ff816112e4565b811461130a57600080fd5b50565b60008135905061131c816112f6565b92915050565b600060208284031215611338576113376112bf565b5b60006113468482850161130d565b91505092915050565b6000819050919050565b6113628161134f565b82525050565b600060208201905061137d6000830184611359565b92915050565b61138c8161134f565b811461139757600080fd5b50565b6000813590506113a981611383565b92915050565b6000602082840312156113c5576113c46112bf565b5b60006113d38482850161139a565b91505092915050565b6113e58161134f565b82525050565b6113f4816112e4565b82525050565b60008115159050919050565b61140f816113fa565b82525050565b6101208201600082015161142c60008501826113dc565b50602082015161143f60208501826113eb565b50604082015161145260408501826113eb565b50606082015161146560608501826113dc565b50608082015161147860808501826113dc565b5060a082015161148b60a08501826113dc565b5060c082015161149e60c0850182611406565b5060e08201516114b160e0850182611406565b506101008201516114c6610100850182611406565b50505050565b6000610120820190506114e26000830184611415565b92915050565b6114f1816112e4565b82525050565b611500816113fa565b82525050565b60006101208201905061151c600083018c611359565b611529602083018b6114e8565b611536604083018a6114e8565b6115436060830189611359565b6115506080830188611359565b61155d60a0830187611359565b61156a60c08301866114f7565b61157760e08301856114f7565b6115856101008301846114f7565b9a9950505050505050505050565b6000806000606084860312156115ac576115ab6112bf565b5b60006115ba8682870161139a565b93505060206115cb8682870161139a565b92505060406115dc8682870161139a565b9150509250925092565b600082825260208201905092915050565b7f4c6f616e20616c72656164792066756e64656400000000000000000000000000600082015250565b600061162d6013836115e6565b9150611638826115f7565b602082019050919050565b6000602082019050818103600083015261165c81611620565b9050919050565b7f4c6f616e2064656661756c746564000000000000000000000000000000000000600082015250565b6000611699600e836115e6565b91506116a482611663565b602082019050919050565b600060208201905081810360008301526116c88161168c565b9050919050565b7f496e636f72726563742066756e64696e6720616d6f756e740000000000000000600082015250565b60006117056018836115e6565b9150611710826116cf565b602082019050919050565b60006020820190508181036000830152611734816116f8565b9050919050565b7f4c6f616e20646f6573206e6f7420657869737400000000000000000000000000600082015250565b60006117716013836115e6565b915061177c8261173b565b602082019050919050565b600060208201905081810360008301526117a081611764565b9050919050565b60006040820190506117bc6000830185611359565b6117c960208301846114e8565b9392505050565b7f4c6f616e206e6f742066756e6465642079657400000000000000000000000000600082015250565b60006118066013836115e6565b9150611811826117d0565b602082019050919050565b60006020820190508181036000830152611835816117f9565b9050919050565b7f4c6f616e20616c72656164792072657061696400000000000000000000000000600082015250565b60006118726013836115e6565b915061187d8261183c565b602082019050919050565b600060208201905081810360008301526118a181611865565b9050919050565b7f4c6f616e20616c72656164792064656661756c74656400000000000000000000600082015250565b60006118de6016836115e6565b91506118e9826118a8565b602082019050919050565b6000602082019050818103600083015261190d816118d1565b9050919050565b7f4f6e6c7920626f72726f7765722063616e207265706179000000000000000000600082015250565b600061194a6017836115e6565b915061195582611914565b602082019050919050565b600060208201905081810360008301526119798161193d565b9050919050565b7f4e487b7100000000000000000000000000000000000000000000000000000000600052601160045260246000fd5b60006119ba8261134f565b91506119c58361134f565b92508282026119d38161134f565b915082820484148315176119ea576119e9611980565b5b5092915050565b7f4e487b7100000000000000000000000000000000000000000000000000000000600052601260045260246000fd5b6000611a2b8261134f565b9150611a368361134f565b925082611a4657611a456119f1565b5b828204905092915050565b6000611a5c8261134f565b9150611a678361134f565b9250828201905080821115611a7f57611a7e611980565b5b92915050565b7f496e73756666696369656e742072657061796d656e7420616d6f756e74000000600082015250565b6000611abb601d836115e6565b9150611ac682611a85565b602082019050919050565b60006020820190508181036000830152611aea81611aae565b9050919050565b6000606082019050611b066000830186611359565b611b1360208301856114e8565b611b206040830184611359565b949350505050565b6000611b338261134f565b9150611b3e8361134f565b9250828203905081811115611b5657611b55611980565b5b92915050565b6000604082019050611b7160008301856114e8565b611b7e6020830184611359565b9392505050565b7f416c72656164792064656661756c746564000000000000000000000000000000600082015250565b6000611bbb6011836115e6565b9150611bc682611b85565b602082019050919050565b60006020820190508181036000830152611bea81611bae565b9050919050565b7f5374696c6c20696e20677261636520706572696f640000000000000000000000600082015250565b6000611c276015836115e6565b9150611c3282611bf1565b602082019050919050565b60006020820190508181036000830152611c5681611c1a565b9050919050565b7f4c6f616e20616d6f756e74206d7573742062652067726561746572207468616e60008201527f207a65726f000000000000000000000000000000000000000000000000000000602082015250565b6000611cb96025836115e6565b9150611cc482611c5d565b604082019050919050565b60006020820190508181036000830152611ce881611cac565b9050919050565b7f496e76616c696420647565206461746500000000000000000000000000000000600082015250565b6000611d256010836115e6565b9150611d3082611cef565b602082019050919050565b60006020820190508181036000830152611d5481611d18565b9050919050565b6000611d668261134f565b91507fffffffffffffffffffffffffffffffffffffffffffffffffffffffffffffffff8203611d9857611d97611980565b5b600182019050919050565b600060a082019050611db86000830188611359565b611dc560208301876114e8565b611dd26040830186611359565b611ddf6060830185611359565b611dec6080830184611359565b969550505050505056fea2646970667358221220e6cf885fa7c5f4c830b70a4302d19b9936e915956c924891223fb638144b50bc64736f6c634300081b0033",
  "linkReferences": {},
  "deployedLinkReferences": {}
}